{
  "_format": "hh-sol-artifact-1",
  "contractName": "TodoList",
  "sourceName": "contracts/TodoList.sol",
  "abi": [
    {
      "inputs": [],
      "stateMutability": "nonpayable",
      "type": "constructor"
    },
    {
      "anonymous": false,
      "inputs": [
        {
          "indexed": false,
          "internalType": "string",
          "name": "title",
          "type": "string"
        },
        {
          "indexed": false,
          "internalType": "enum TodoList.Status",
          "name": "status",
          "type": "uint8"
        }
      ],
      "name": "TodoCreated",
      "type": "event"
    },
    {
      "inputs": [
        {
          "internalType": "string",
          "name": "_title",
          "type": "string"
        },
        {
          "internalType": "string",
          "name": "_desc",
          "type": "string"
        }
      ],
      "name": "createTodo",
      "outputs": [
        {
          "internalType": "bool",
          "name": "",
          "type": "bool"
        }
      ],
      "stateMutability": "nonpayable",
      "type": "function"
    },
    {
      "inputs": [
        {
          "internalType": "uint8",
          "name": "_index",
          "type": "uint8"
        }
      ],
      "name": "deleteTodo",
      "outputs": [],
      "stateMutability": "nonpayable",
      "type": "function"
    },
    {
      "inputs": [],
      "name": "getAllTodo",
      "outputs": [
        {
          "components": [
            {
              "internalType": "string",
              "name": "title",
              "type": "string"
            },
            {
              "internalType": "string",
              "name": "description",
              "type": "string"
            },
            {
              "internalType": "enum TodoList.Status",
              "name": "status",
              "type": "uint8"
            }
          ],
          "internalType": "struct TodoList.Todo[]",
          "name": "",
          "type": "tuple[]"
        }
      ],
      "stateMutability": "view",
      "type": "function"
    },
    {
      "inputs": [
        {
          "internalType": "uint8",
          "name": "_index",
          "type": "uint8"
        }
      ],
      "name": "getTodo",
      "outputs": [
        {
          "internalType": "string",
          "name": "",
          "type": "string"
        },
        {
          "internalType": "string",
          "name": "",
          "type": "string"
        },
        {
          "internalType": "enum TodoList.Status",
          "name": "",
          "type": "uint8"
        }
      ],
      "stateMutability": "view",
      "type": "function"
    },
    {
      "inputs": [],
      "name": "owner",
      "outputs": [
        {
          "internalType": "address",
          "name": "",
          "type": "address"
        }
      ],
      "stateMutability": "view",
      "type": "function"
    },
    {
      "inputs": [
        {
          "internalType": "uint8",
          "name": "_index",
          "type": "uint8"
        }
      ],
      "name": "todoCompleted",
      "outputs": [
        {
          "internalType": "bool",
          "name": "",
          "type": "bool"
        }
      ],
      "stateMutability": "nonpayable",
      "type": "function"
    },
    {
      "inputs": [
        {
          "internalType": "uint256",
          "name": "",
          "type": "uint256"
        }
      ],
      "name": "todos",
      "outputs": [
        {
          "internalType": "string",
          "name": "title",
          "type": "string"
        },
        {
          "internalType": "string",
          "name": "description",
          "type": "string"
        },
        {
          "internalType": "enum TodoList.Status",
          "name": "status",
          "type": "uint8"
        }
      ],
      "stateMutability": "view",
      "type": "function"
    },
    {
      "inputs": [
        {
          "internalType": "uint8",
          "name": "_index",
          "type": "uint8"
        },
        {
          "internalType": "string",
          "name": "_title",
          "type": "string"
        },
        {
          "internalType": "string",
          "name": "_desc",
          "type": "string"
        }
      ],
      "name": "updateTodo",
      "outputs": [],
      "stateMutability": "nonpayable",
      "type": "function"
    }
  ],
  "bytecode": "0x6080604052348015600f57600080fd5b50336000806101000a81548173ffffffffffffffffffffffffffffffffffffffff021916908373ffffffffffffffffffffffffffffffffffffffff160217905550611cbd8061005f6000396000f3fe608060405234801561001057600080fd5b50600436106100885760003560e01c8063982abb891161005b578063982abb8914610127578063bc8bc2b414610145578063e950516414610177578063fb0b86fb1461019357610088565b8063233881461461008d5780633380b99f146100a95780635607da51146100d95780638da5cb5b14610109575b600080fd5b6100a760048036038101906100a2919061103c565b6101c5565b005b6100c360048036038101906100be91906111af565b61042e565b6040516100d09190611242565b60405180910390f35b6100f360048036038101906100ee919061103c565b6105d9565b6040516101009190611242565b60405180910390f35b610111610783565b60405161011e919061129e565b60405180910390f35b61012f6107a7565b60405161013c91906114c8565b60405180910390f35b61015f600480360381019061015a9190611520565b6109d4565b60405161016e939291906115a6565b60405180910390f35b610191600480360381019061018c91906115eb565b610b2b565b005b6101ad60048036038101906101a8919061103c565b610cf2565b6040516101bc939291906115a6565b60405180910390f35b60008054906101000a900473ffffffffffffffffffffffffffffffffffffffff1673ffffffffffffffffffffffffffffffffffffffff163373ffffffffffffffffffffffffffffffffffffffff1614610253576040517f08c379a000000000000000000000000000000000000000000000000000000000815260040161024a906116c2565b60405180910390fd5b600073ffffffffffffffffffffffffffffffffffffffff163373ffffffffffffffffffffffffffffffffffffffff16036102c2576040517f08c379a00000000000000000000000000000000000000000000000000000000081526004016102b99061172e565b60405180910390fd5b6001805490508160ff161061030c576040517f08c379a00000000000000000000000000000000000000000000000000000000081526004016103039061179a565b60405180910390fd5b600180808054905061031e91906117e9565b8154811061032f5761032e61181d565b5b906000526020600020906003020160018260ff16815481106103545761035361181d565b5b9060005260206000209060030201600082018160000190816103769190611a6e565b506001820181600101908161038b9190611a6e565b506002820160009054906101000a900460ff168160020160006101000a81548160ff021916908360038111156103c4576103c3611364565b5b021790555090505060018054806103de576103dd611b56565b5b6001900381819060005260206000209060030201600080820160006104039190610f5f565b6001820160006104139190610f5f565b6002820160006101000a81549060ff02191690555050905550565b60008060009054906101000a900473ffffffffffffffffffffffffffffffffffffffff1673ffffffffffffffffffffffffffffffffffffffff163373ffffffffffffffffffffffffffffffffffffffff16146104bf576040517f08c379a00000000000000000000000000000000000000000000000000000000081526004016104b6906116c2565b60405180910390fd5b6104c7610f9f565b8381600001819052508281602001819052506001816040019060038111156104f2576104f1611364565b5b9081600381111561050657610505611364565b5b815250506001819080600181540180825580915050600190039060005260206000209060030201600090919091909150600082015181600001908161054b9190611b85565b5060208201518160010190816105619190611b85565b5060408201518160020160006101000a81548160ff0219169083600381111561058d5761058c611364565b5b021790555050507fb24501745f85fff88cc582df1223bf671a1234ab872711ffaa7eb8bd56fe311e8460016040516105c6929190611c57565b60405180910390a1600191505092915050565b60008060009054906101000a900473ffffffffffffffffffffffffffffffffffffffff1673ffffffffffffffffffffffffffffffffffffffff163373ffffffffffffffffffffffffffffffffffffffff161461066a576040517f08c379a0000000000000000000000000000000000000000000000000000000008152600401610661906116c2565b60405180910390fd5b600073ffffffffffffffffffffffffffffffffffffffff163373ffffffffffffffffffffffffffffffffffffffff16036106d9576040517f08c379a00000000000000000000000000000000000000000000000000000000081526004016106d09061172e565b60405180910390fd5b6001805490508260ff1610610723576040517f08c379a000000000000000000000000000000000000000000000000000000000815260040161071a9061179a565b60405180910390fd5b600060018360ff168154811061073c5761073b61181d565b5b9060005260206000209060030201905060038160020160006101000a81548160ff0219169083600381111561077457610773611364565b5b02179055506001915050919050565b60008054906101000a900473ffffffffffffffffffffffffffffffffffffffff1681565b6060600073ffffffffffffffffffffffffffffffffffffffff163373ffffffffffffffffffffffffffffffffffffffff1603610818576040517f08c379a000000000000000000000000000000000000000000000000000000000815260040161080f9061172e565b60405180910390fd5b6001805480602002602001604051908101604052809291908181526020016000905b828210156109cb578382906000526020600020906003020160405180606001604052908160008201805461086d9061187b565b80601f01602080910402602001604051908101604052809291908181526020018280546108999061187b565b80156108e65780601f106108bb576101008083540402835291602001916108e6565b820191906000526020600020905b8154815290600101906020018083116108c957829003601f168201915b505050505081526020016001820180546108ff9061187b565b80601f016020809104026020016040519081016040528092919081815260200182805461092b9061187b565b80156109785780601f1061094d57610100808354040283529160200191610978565b820191906000526020600020905b81548152906001019060200180831161095b57829003601f168201915b505050505081526020016002820160009054906101000a900460ff1660038111156109a6576109a5611364565b5b60038111156109b8576109b7611364565b5b815250508152602001906001019061083a565b50505050905090565b600181815481106109e457600080fd5b9060005260206000209060030201600091509050806000018054610a079061187b565b80601f0160208091040260200160405190810160405280929190818152602001828054610a339061187b565b8015610a805780601f10610a5557610100808354040283529160200191610a80565b820191906000526020600020905b815481529060010190602001808311610a6357829003601f168201915b505050505090806001018054610a959061187b565b80601f0160208091040260200160405190810160405280929190818152602001828054610ac19061187b565b8015610b0e5780601f10610ae357610100808354040283529160200191610b0e565b820191906000526020600020905b815481529060010190602001808311610af157829003601f168201915b5050505050908060020160009054906101000a900460ff16905083565b60008054906101000a900473ffffffffffffffffffffffffffffffffffffffff1673ffffffffffffffffffffffffffffffffffffffff163373ffffffffffffffffffffffffffffffffffffffff1614610bb9576040517f08c379a0000000000000000000000000000000000000000000000000000000008152600401610bb0906116c2565b60405180910390fd5b600073ffffffffffffffffffffffffffffffffffffffff163373ffffffffffffffffffffffffffffffffffffffff1603610c28576040517f08c379a0000000000000000000000000000000000000000000000000000000008152600401610c1f9061172e565b60405180910390fd5b6001805490508360ff1610610c72576040517f08c379a0000000000000000000000000000000000000000000000000000000008152600401610c699061179a565b60405180910390fd5b600060018460ff1681548110610c8b57610c8a61181d565b5b9060005260206000209060030201905082816000019081610cac9190611b85565b5081816001019081610cbe9190611b85565b5060028160020160006101000a81548160ff02191690836003811115610ce757610ce6611364565b5b021790555050505050565b60608060008073ffffffffffffffffffffffffffffffffffffffff163373ffffffffffffffffffffffffffffffffffffffff1603610d65576040517f08c379a0000000000000000000000000000000000000000000000000000000008152600401610d5c9061172e565b60405180910390fd5b6001805490508460ff1610610daf576040517f08c379a0000000000000000000000000000000000000000000000000000000008152600401610da69061179a565b60405180910390fd5b600060018560ff1681548110610dc857610dc761181d565b5b9060005260206000209060030201604051806060016040529081600082018054610df19061187b565b80601f0160208091040260200160405190810160405280929190818152602001828054610e1d9061187b565b8015610e6a5780601f10610e3f57610100808354040283529160200191610e6a565b820191906000526020600020905b815481529060010190602001808311610e4d57829003601f168201915b50505050508152602001600182018054610e839061187b565b80601f0160208091040260200160405190810160405280929190818152602001828054610eaf9061187b565b8015610efc5780601f10610ed157610100808354040283529160200191610efc565b820191906000526020600020905b815481529060010190602001808311610edf57829003601f168201915b505050505081526020016002820160009054906101000a900460ff166003811115610f2a57610f29611364565b5b6003811115610f3c57610f3b611364565b5b815250509050806000015181602001518260400151935093509350509193909250565b508054610f6b9061187b565b6000825580601f10610f7d5750610f9c565b601f016020900490600052602060002090810190610f9b9190610fd2565b5b50565b6040518060600160405280606081526020016060815260200160006003811115610fcc57610fcb611364565b5b81525090565b5b80821115610feb576000816000905550600101610fd3565b5090565b6000604051905090565b600080fd5b600080fd5b600060ff82169050919050565b61101981611003565b811461102457600080fd5b50565b60008135905061103681611010565b92915050565b60006020828403121561105257611051610ff9565b5b600061106084828501611027565b91505092915050565b600080fd5b600080fd5b6000601f19601f8301169050919050565b7f4e487b7100000000000000000000000000000000000000000000000000000000600052604160045260246000fd5b6110bc82611073565b810181811067ffffffffffffffff821117156110db576110da611084565b5b80604052505050565b60006110ee610fef565b90506110fa82826110b3565b919050565b600067ffffffffffffffff82111561111a57611119611084565b5b61112382611073565b9050602081019050919050565b82818337600083830152505050565b600061115261114d846110ff565b6110e4565b90508281526020810184848401111561116e5761116d61106e565b5b611179848285611130565b509392505050565b600082601f83011261119657611195611069565b5b81356111a684826020860161113f565b91505092915050565b600080604083850312156111c6576111c5610ff9565b5b600083013567ffffffffffffffff8111156111e4576111e3610ffe565b5b6111f085828601611181565b925050602083013567ffffffffffffffff81111561121157611210610ffe565b5b61121d85828601611181565b9150509250929050565b60008115159050919050565b61123c81611227565b82525050565b60006020820190506112576000830184611233565b92915050565b600073ffffffffffffffffffffffffffffffffffffffff82169050919050565b60006112888261125d565b9050919050565b6112988161127d565b82525050565b60006020820190506112b3600083018461128f565b92915050565b600081519050919050565b600082825260208201905092915050565b6000819050602082019050919050565b600081519050919050565b600082825260208201905092915050565b60005b8381101561131f578082015181840152602081019050611304565b60008484015250505050565b6000611336826112e5565b61134081856112f0565b9350611350818560208601611301565b61135981611073565b840191505092915050565b7f4e487b7100000000000000000000000000000000000000000000000000000000600052602160045260246000fd5b600481106113a4576113a3611364565b5b50565b60008190506113b582611393565b919050565b60006113c5826113a7565b9050919050565b6113d5816113ba565b82525050565b600060608301600083015184820360008601526113f8828261132b565b91505060208301518482036020860152611412828261132b565b915050604083015161142760408601826113cc565b508091505092915050565b600061143e83836113db565b905092915050565b6000602082019050919050565b600061145e826112b9565b61146881856112c4565b93508360208202850161147a856112d5565b8060005b858110156114b657848403895281516114978582611432565b94506114a283611446565b925060208a0199505060018101905061147e565b50829750879550505050505092915050565b600060208201905081810360008301526114e28184611453565b905092915050565b6000819050919050565b6114fd816114ea565b811461150857600080fd5b50565b60008135905061151a816114f4565b92915050565b60006020828403121561153657611535610ff9565b5b60006115448482850161150b565b91505092915050565b600082825260208201905092915050565b6000611569826112e5565b611573818561154d565b9350611583818560208601611301565b61158c81611073565b840191505092915050565b6115a0816113ba565b82525050565b600060608201905081810360008301526115c0818661155e565b905081810360208301526115d4818561155e565b90506115e36040830184611597565b949350505050565b60008060006060848603121561160457611603610ff9565b5b600061161286828701611027565b935050602084013567ffffffffffffffff81111561163357611632610ffe565b5b61163f86828701611181565b925050604084013567ffffffffffffffff8111156116605761165f610ffe565b5b61166c86828701611181565b9150509250925092565b7f596f75277265206e6f7420616c6c6f7765640000000000000000000000000000600082015250565b60006116ac60128361154d565b91506116b782611676565b602082019050919050565b600060208201905081810360008301526116db8161169f565b9050919050565b7f5a65726f2041646472657373206e6f7420616c6c6f7765640000000000000000600082015250565b600061171860188361154d565b9150611723826116e2565b602082019050919050565b600060208201905081810360008301526117478161170b565b9050919050565b7f496e646578206973206f7574206f6620626f756e640000000000000000000000600082015250565b600061178460158361154d565b915061178f8261174e565b602082019050919050565b600060208201905081810360008301526117b381611777565b9050919050565b7f4e487b7100000000000000000000000000000000000000000000000000000000600052601160045260246000fd5b60006117f4826114ea565b91506117ff836114ea565b9250828203905081811115611817576118166117ba565b5b92915050565b7f4e487b7100000000000000000000000000000000000000000000000000000000600052603260045260246000fd5b7f4e487b7100000000000000000000000000000000000000000000000000000000600052602260045260246000fd5b6000600282049050600182168061189357607f821691505b6020821081036118a6576118a561184c565b5b50919050565b6000815490506118bb8161187b565b9050919050565b60008190508160005260206000209050919050565b60006020601f8301049050919050565b600082821b905092915050565b6000600883026119247fffffffffffffffffffffffffffffffffffffffffffffffffffffffffffffffff826118e7565b61192e86836118e7565b95508019841693508086168417925050509392505050565b6000819050919050565b600061196b611966611961846114ea565b611946565b6114ea565b9050919050565b6000819050919050565b61198583611950565b61199961199182611972565b8484546118f4565b825550505050565b600090565b6119ae6119a1565b6119b981848461197c565b505050565b5b818110156119dd576119d26000826119a6565b6001810190506119bf565b5050565b601f821115611a22576119f3816118c2565b6119fc846118d7565b81016020851015611a0b578190505b611a1f611a17856118d7565b8301826119be565b50505b505050565b600082821c905092915050565b6000611a4560001984600802611a27565b1980831691505092915050565b6000611a5e8383611a34565b9150826002028217905092915050565b818103611a7c575050611b54565b611a85826118ac565b67ffffffffffffffff811115611a9e57611a9d611084565b5b611aa8825461187b565b611ab38282856119e1565b6000601f831160018114611ae25760008415611ad0578287015490505b611ada8582611a52565b865550611b4d565b601f198416611af0876118c2565b9650611afb866118c2565b60005b82811015611b2357848901548255600182019150600185019450602081019050611afe565b86831015611b405784890154611b3c601f891682611a34565b8355505b6001600288020188555050505b5050505050505b565b7f4e487b7100000000000000000000000000000000000000000000000000000000600052603160045260246000fd5b611b8e826112e5565b67ffffffffffffffff811115611ba757611ba6611084565b5b611bb1825461187b565b611bbc8282856119e1565b600060209050601f831160018114611bef5760008415611bdd578287015190505b611be78582611a52565b865550611c4f565b601f198416611bfd866118c2565b60005b82811015611c2557848901518255600182019150602085019450602081019050611c00565b86831015611c425784890151611c3e601f891682611a34565b8355505b6001600288020188555050505b505050505050565b60006040820190508181036000830152611c71818561155e565b9050611c806020830184611597565b939250505056fea2646970667358221220679e886ec2535c6104647e45cd73006c0a77ab7ec1c0d761afe508ed2ff9ab9064736f6c634300081b0033",
  "linkReferences": {},
  "deployedLinkReferences": {}
}